:020000040800F2
:10000000788C0720B1020008E17C00080D7C000814
:10001000AD7C0008B540000817A5000800000000EE
:10002000000000000000000000000000D1010008F6
:1000300075460008000000002D020008C18C000871
:10004000CB020008CB020008CB020008C1850008E3
:10005000CB020008CB020008CB020008CB0200084C
:10006000CB020008CB020008CB02000821420008A6
:1000700029420008CB020008CB020008CB0200088E
:10008000CB020008CB020008CB020008CB0200081C
:10009000CB020008CB020008CB020008774600081C
:1000A000CB020008CB020008CB020008CB020008FC
:1000B000CB020008918E0008998E0008CB02000840
:1000C000CB020008CB020008CB0200085B890008C5
:1000D000CB02000807A500080FA50008CB02000806
:1000E000CB020008A1820008CB020008CB02000866
:1000F000B18E0008CB020008CB020008000000000F
:10010000CB020008CB020008CB020008CB0200089B
:10011000CB020008CB020008CB0200089D8E00082D
:10012000CB020008CB020008CB020008CB0200087B
:10013000CB020008CB020008CB020008CB0200086B
:10014000CB020008CB020008CB020008CB0200085B
:10015000CB020008CB020008617C0008CB0200083B
:10016000CB020008CB020008CB020008CB0200083B
:10017000CB020008CB020008CB0200080000000000
:10018000CB020008CB020008CB020008CB0200081B
:10019000CB020008CB0200080000000000000000B5
:1001A0000000000000000000CB020008CB020008A5
:1001B000CB020008CB020008CB020008DFF80CD00D
:1001C00000F06AFC0048004759D70008788C0720E7
:1001D0002C4B1968086800F05AB880F30988BFF3FF
:1001E0006F8F4FF0000080F311887047000000000F
:1001F00008480068006880F308884FF0000080F32A
:10020000148862B661B6BFF34F8FBFF36F8F00DF04
:1002100000BF00BF08ED00E0DFF80C00016841F40A
:1002200070010160704700BF88ED00E0EFF30980C6
:10023000BFF36F8F134B1A681EF0100F08BF20ED2D
:10024000108A20E9F04F106009B44FF0500080F39D
:100250001188BFF34F8FBFF36F8F0EF0E5FA4FF0A9
:10026000000080F3118809BC1968086800F014B810
:100270001EF0100F08BF00F014B880F30988BFF318
:100280006F8F7047DC070020EFF30580704730C8A0
:10029000B0E8C04FFFF7A1BF30C8B0E8C04FFFF7CC
:1002A000E7BFB0EC088AB0EC08CAFFF7E6BF000071
:1002B0000648804706480047FEE7FEE7FEE7FEE700
:1002C000FEE7FEE7FEE7FEE7FEE7FEE7658D0008D6
:1002D000BD0100082DE9F05F0546002092469B46CF
:1002E00088460646814640241BE02846414647464C
:1002F000224600F014F953465A46C01A914110D3D1
:1003000011461846224600F0FBF82D1A67EB01084B
:100310004F4622460120002100F0F2F817EB0009B9
:100320004E41201EA4F10104DFDC484631462A4636
:10033000434600F000B830BCBDE8C09F40EA01036E
:100340009B0703D009E008C9121F08C0042AFAD28B
:1003500003E011F8013B00F8013B521EF9D270474F
:10036000D2B201E000F8012B491EFBD270470022F7
:10037000F6E710B513460A4604461946FFF7F0FFA4
:10038000204610BD30B505462A460B4612F8010B33
:1003900013F8014B08B1A042F8D01CB1002802D0DC
:1003A0006D1CF1E7284630BD421C10F8011B0029E6
:1003B000FBD1801A7047034611F8012B00F8012B7E
:1003C000002AF9D1184670470EB540F23341029128
:1003D0000021CDE900110A460B4600F0F6F803B003
:1003E00000BDC1F30A5210B5C1F3130140F2FF334F
:1003F00041F480119A4201DA002010BD40F23343EB
:100400009A42A2F2334203DC524200F088F810BD57
:10041000904010BD00F0004230F000400AD0C10D05
:1004200001F56071C0F3160042EA0151C2084007AD
:1004300011437047002001467047000030B5041E8C
:1004400071F1000404DB4FF00044404264EB010111
:10045000141E73F1000405DB1C464FF000435242AA
:1004600063EB04038B4208BF824230BD30B5041EEB
:1004700071F1000404DB4FF00044404264EB0101E1
:10048000141E73F1000405DB1C464FF0004352427A
:1004900063EB0403994208BF904230BD01F0004372
:1004A00030B421F0004150EA010206D00A0DA2F555
:1004B0006072C1F31301002A02DC30BC00207047D7
:1004C000440F44EAC104C100E01830BC00EBC25044
:1004D00000F035B830B50B4601460020202201243B
:1004E00009E021FA02F59D4205D303FA02F5491B02
:1004F00004FA02F52844151EA2F10102F1DC30BD18
:10050000202A04DB203A00FA02F1002070479140D3
:10051000C2F1200320FA03F3194390407047202AC8
:1005200004DB203A21FA02F00021704721FA02F39D
:10053000D040C2F12002914008431946704700297B
:10054000A8BF7047401C490008BF20F00100704759
:1005500010B4B0FA80FC00FA0CF050EA010404BFB9
:1005600010BC704749B1CCF1200421FA04F411FA0F
:100570000CF118BF012121430843A3EB0C01CB1D53
:100580004FEA00614FEA102042BF002010BC7047C4
:1005900000EBC35010440029A4BF10BC7047401C9E
:1005A000490008BF20F0010010BC704710B5141EB0
:1005B00073F1000408DA401C41F1000192185B411C
:1005C0001A4301D120F0010010BD2DE9F04D9246F3
:1005D0009B4611B1B1FA81F202E0B0FA80F220320A
:1005E0009046FFF78DFF04460F4640EA0A0041EAB5
:1005F0000B0153465A46084313D0114653EA0100F3
:1006000019D0C8F140025046FFF789FF05460E4653
:10061000504659464246FFF773FF084305D0012074
:1006200004E020463946BDE8F08D0020054346EA47
:10063000E0762C4337430A986305E40AA0EB0800F0
:100640000022FD0A44EA47540A3002D50020014640
:10065000E9E7010510196941DDE90845001969411B
:10066000BDE8F04DA2E72DE9FE4F804681EA030088
:10067000C00F0C46009021F0004123F00045B8EB7C
:100680000200A94105D24046214690461C460B4631
:10069000024623F00040104347D0270DC7F30A005D
:1006A000C3F30A510290401A019040286BDAC3F359
:1006B000130040F4801B0098924620B10023D2EB37
:1006C000030A63EB0B0B01985946C0F140025046F8
:1006D000FFF716FF06460D4650465946019A00F0B0
:1006E000EDF910EB08006141002487EA115284EA19
:1006F000E7731A4340D0009A62B3019A012A4FEA85
:10070000075215DC001B61EB02014FF0004202EAC8
:100710000752CDE90042001C41F5801132462B46BC
:10072000FFF753FF03B000F045B840462146F9E714
:10073000001B61EB0201001C41F5801300185B41B6
:100740002018A2F5001747EB030140EAD570B6194F
:100750006D4111E06D084FEA360645EAC0754FEA73
:100760000752001B61EB0201001C41F58011490892
:100770004FEA30000019514132462B4603B000F0D9
:100780001CB8FFF713BF0098012240000023D0EBF4
:10079000020263EBE073009821464FEAE074B8EB85
:1007A000000061EB0401E9E783F000435BE781F0BF
:1007B000004158E730BCBDE8C08F30BCBDE8C04F39
:1007C000FFF7DFBF2DE9FE4F81EA030404F0004488
:1007D00021F0004100944FF0000B23F0004350EA59
:1007E00001045ED052EA03045BD0C3F30A54C1F3A0
:1007F0000A552C44A4F2F3340194A0FB0254C1F333
:10080000130141F48011C3F3130343F4801301FB7C
:10081000024400FB034E840A970A44EA815447EAE3
:100820008357A4FB076802958D0A05FB07854FEAED
:10083000932C04FB0C542705029D4FEA065847EA07
:100840001637B5EB08056EEB070C870E920E47EADC
:10085000811742EA8312A7FB0201B6EB0B0164EB9E
:1008600000042B0D43EA0C335E1844EB1C50DA46AF
:100870005146E7FB0201C5F313044FEA0B3343EA89
:1008800014534FEA0432019C43EA0603A4F10C041A
:100890000294009CCDE900B4FFF797FE03B000F08E
:1008A00003B800200146F9E730BCBDE8C08F2DE950
:1008B000F04D81EA030404F0004B21F0004514469A
:1008C0004FF0000A23F0004150EA050220D054EA1C
:1008D00001021DD0C5F30A570246C5F31303C1F345
:1008E0001300C1F30A5640F4801543F48013A7EBBC
:1008F0000608101BD64608F2FD3873EB050002D33C
:1009000008F1010801E092185B41B8F1000F03DA29
:1009100000200146BDE8F08D00204FF4801106460E
:1009200084460EE0171B73EB050705D3121B63EB20
:10093000050306434CEA010C49084FEA30009218BF
:100940005B4150EA0107EDD152EA030012D082EA7E
:10095000040083EA0501084305D0101BAB4106D211
:100960000122002306E000224FF0004302E06FF076
:10097000010253101AEB06004CEB085110EB0A0071
:1009800041EB0B01BDE8F04DFFF710BE70B521F053
:10099000004303430CD0C1F30A550024D5EB0405F2
:1009A00064EB0403D617AD1AB34102DB0020014605
:1009B00070BD201841EB025170BD00002DE9F041DF
:1009C000054621F000400C46284309D0C4F30A50E4
:1009D00040F23341884205DD28462146BDE8F081DA
:1009E0002846FBE740F2FE31884210DC0CDB4FEA80
:1009F000043040EA155050EA053105D0104804F0A3
:100A0000004101430020E9E700200146E6E7A0F2AB
:100A100033404642C6F1400228462146FFF770FDAA
:100A200007468846284621463246FFF778FD43466A
:100A30003A46FFF7BBFD3246BDE8F041FFF760BD27
:100A40000000F03F0EB5C10F80EAE0700844CA070D
:100A5000002140F233438DE80E000A460B46FFF7B3
:100A6000B4FD03B000BDC1F30A52C1F3130140F25B
:100A7000FF3341F480119A4202DA002001467047A8
:100A800040F233439A42A2F2334202DC5242FFF771
:100A900046BDFFF735BD0000064C074D06E0E06897
:100AA00040F0010394E8070098471034AC42F6D3B5
:100AB000FFF788FB5859020878590208202A06DBFC
:100AC000CB17203A41FA02F043EAE07306E041FA1C
:100AD00002F3D040C2F1200291400843194670470A
:100AE0002DE9F04D00231A461B1A8A4103DB002032
:100AF0000146BDE8F08DC1F30A52C1F3130141F480
:100B000080154FF0000BD10702D100186D41521E25
:100B10000027044640F2FF11384601EB620A3E46C8
:100B20008046024600204FF48011FFF7F8FCC219FE
:100B30007141BB1846EB0100B4EB030C75EB000CE4
:100B400004D3E41A65EB000517460E46241908F194
:100B500001006D4180463428E3DDF91946EB0600BB
:100B6000091BA84103D24FF0FF32134601E00022D7
:100B700013461BEB070046EB0A51BDE8F04DFFF7AB
:100B800015BD30B58C1810F8012B12F00F0301D1F0
:100B900010F8013B120906D110F8012B03E010F800
:100BA000015B01F8015B5B1EF9D101E001F8013B3B
:100BB000521EFBD1A142E6D3002030BD80B50023F8
:100BC000B3EB920F22D0930890ED000A00F1100CC5
:100BD000B0EEC00A81ED000A90ED010A01F1100E9D
:100BE000B0EEC00A81ED010A90ED020A013BB0EEC1
:100BF000C00A81ED020A90ED030A6046B0EEC00A19
:100C000081ED030A7146DFD17146604612F003029E
:100C100008BF80BDB0EC010A013AB0EEC00AA1ECF9
:100C2000010AF7D180BD00002DE9F041D0E900C4F0
:100C300080684FEA930E03F0030800BF90ED000AAE
:100C400090ED011A90ED022A90ED033A90ED044ADE
:100C500094ED005A94ED017A94ED026AD4ED030A02
:100C6000BEF1000F64D07646174600BFD1ED001AE2
:100C700061EE053A60EE212A73EEA22A22EE077A8F
:100C800037EE227A63EE062A32EE877A64EE200A85
:100C900070EE870AC7ED000AD1ED012A61EE213A14
:100CA00020EE227A33EE877A22EE055A35EE075A85
:100CB00023EE207A35EE075A24EE066A36EE056AF0
:100CC00087ED016A91ED027A61EE223A20EE075A31
:100CD00033EE855A62EE211A31EE855A63EE061A1A
:100CE00035EE215A64EE200A70EE850AC7ED020A3D
:100CF00091ED035A61EE073A60EE051A73EEA11A00
:100D000062EE222A72EEA11A63EE202A71EEA21A76
:100D100024EE066A36EE216A01F1100307F1100590
:100D200087ED036A013E19462F469FD1194600E020
:100D30001546B8F1000F00F1140023D0464600BF5D
:100D4000F0EE451A91ED005A61EE213A60EE052A67
:100D500073EEA22A22EE077A37EE227AF0EE462AC6
:100D600023EE066A36EE076A24EE207A37EE066A2C
:100D70000431A5EC016A013EF0EE620AB0EE617A40
:100D8000DED103E0F0EE471AF0EE602A84ED005A5F
:100D9000C4ED011A84ED026AC4ED032A1034BCF1DB
:100DA000010C114608BFBDE8F08147E7B0B5054624
:100DB00001608260090118461C46FFF7D8FA6C6092
:100DC000B0BD0000F0B5F1B1002300BF02EB430C51
:100DD00032F813E0BCF802C02EF0030E2CF0030C26
:100DE00050F80E5050F80C6000EB0E0400EB0C07AE
:100DF00040F80E6040F80C507E68656802338B4204
:100E000066607D60E2D3F0BD2DE9F041048898462C
:100E100016460746012A0D460CD1E4B3281D21468B
:100E200090ED000A0139B1EE400A80ED000A00F1B0
:100E30000800F5D1FF2C0CDDB4F5806F10DBB4F5A4
:100E4000805F22D0B4F5006F11D0B4F5806F17D059
:100E500021E03F2C10DC102C12D0202C07D01AE0FF
:100E6000B4F5807F03D0B4F5007F0ED013E0384690
:100E7000294600F005F90EE0402C06D0802C0AD15E
:100E80003846294600F030F805E07A6828462146C1
:100E9000012300F093FBB8F1000F04D0B989BA68C0
:100EA0002846FFF78FFF012E1CD100EE104A002CC0
:100EB000B8EE400A08BFBDE8F081B7EE001A81EE37
:100EC000000A00BF95ED001A95ED012A20EE011AE7
:100ED00022EE402A85ED001A85ED012A013C05F13C
:100EE0000805EFD1BDE8F0812DE9F0472DED028B2B
:100EF00003888046084601EB830AD8F804200021C5
:100F0000B1EBD30F4FEA530900F0AB80D9080AEBDD
:100F1000890C00EB890E0027C4190AEB070594ED34
:100F2000000A95ED003A94ED011A95ED014A0EEB99
:100F300007030CEB070694ED022A95ED025A70EEBA
:100F4000035A93ED006AD6ED001AD6ED012AD6EDCC
:100F5000023AD6ED034AC4ED005A71EE045A93EDFD
:100F6000017AC4ED015A72EE055AD3ED020AC4EDBE
:100F7000025AD4ED035AD5ED036A31EE441A35EE28
:100F8000A68A36EE214AD3ED037A84ED038A83EDF7
:100F9000004A37EE224A83ED014A30EEA34A83ED40
:100FA000024A37EEA44A83ED034AD31931EEC64A0A
:100FB00033EEE06AD3ED000AD3ED011A30EE430AB6
:100FC00032EE452A32EEC75A60EE202A61EE213A0F
:100FD00021EE201A20EE210A31EE400A85ED010AA9
:100FE00024EE210A25EE211A25EE205A72EEA32ABC
:100FF00024EE204A30EE450AC5ED002A86ED000AAF
:1010000034EE010A86ED010A93ED020A93ED031A0C
:1010100035EEE63A22EE004A23EE015A23EE003A7C
:1010200022EE012A34EEE77A33EE422A85ED032AD6
:1010300026EE012A27EE011A27EE003A26EE000AD4
:1010400034EE054A32EE432A30EE010A013907F147
:10105000100785ED024A86ED022A86ED030A7FF429
:101060005BAF4946022300F0A9FAD8F804205046A5
:1010700049460223BDEC028BBDE8F04700F09EBA62
:101080002DE9F04F81B02DED088B8EB0028803461C
:10109000500801EB800505EB800691ED000A91ED0B
:1010A000011A96ED002A96ED013A04935B6806EB6F
:1010B000800730EE024A30EE420A31EE032A31EE6A
:1010C000431A95ED013A95ED005A0593930897ED73
:1010D000017AD7ED000A029374EE452A72EE433A84
:1010E00034EE054A32EE032A6FF0010334EE204A53
:1010F00032EE072A03EB920230EE036A71EE451AD4
:1011000030EE430A31EE051A81ED004A0A9181ED75
:10111000012A510836EE476A71EEA01A72EEE02AF3
:1011200073EEC73A30EE070A31EE601A0095019669
:1011300003970D91C10085ED006AC5ED011AC6ED5A
:10114000002AC6ED013A87ED000A87ED011A0C91DD
:1011500000EB40016FF007036FF003074FEA800ECA
:1011600007EBC00B07EB800A03EB001903EB8102CE
:101170008C000020002500210B9100BF0A9E059BDA
:1011800007900695089406EB04080C9C311806EBB2
:10119000040C06EB0E0491ED020A9CED022AD4ED3C
:1011A000020A30EE026AD8ED022A36EE204A34EE08
:1011B000224A91ED031A9CED033AD4ED031AD8EDBF
:1011C000033A81ED024A94ED034A31EE037A98ED39
:1011D000035A37EE044ACDF824E034EE054A81ED97
:1011E000034A0B9930EE420A31EE431A30EE212ABF
:1011F00003EB010E32EE634A31EE602A0D9932EEB6
:10120000225A36EE602A37EE613A30EE610A31EE4C
:10121000201A1F18581932EE622A33EE633A30EE64
:10122000230A002931EE621A00F0CC800A998E1848
:1012300001EB0A0301EB0905594493ED007AD6ED61
:10124000010AD1ED003A77EE202AD5ED014A72EE7F
:10125000A35A75EEA45A13ED016AD6ED001A51EDAA
:10126000016AD5ED007AC3ED005A11ED018A76EEE0
:10127000215A95ED009A35EE888A38EE098A03EDF9
:10128000018A97ED028A97ED039A24EE08AA25EECB
:1012900009BA25EE085A24EE094A35EE444A37EEDB
:1012A000605A84ED034A36EE614A35EE666A33EEE3
:1012B000E47A36EE276A74EE070A66EE091A20EE23
:1012C000899A60EE880A26EE086A3AEE0BAA71EE59
:1012D000E00A36EE096A84ED02AAC1ED000A01EDCA
:1012E000016A90ED046AD0ED050A62EE061A23EE5B
:1012F000208A23EE063A22EE202A33EE422A8CED93
:10130000032A32EEE32A35EEE63A71EE881A33EE1E
:10131000673A32EE642A0D98CCED021A62EE461A54
:1013200023EE066A23EE203A22EE202A31EEC33A5B
:1013300032EE462A013886ED013A86ED002A0D90FC
:101340009EED062A9EED073A0C9820EE026A61EEA9
:10135000030A21EE021A20EE030A083031EE400A99
:1013600037EEE61ADDF824E00C9088ED030A37EE3C
:10137000440A31EE451A0B9821EE034A20EE033A57
:1013800020EE020A36EE206A21EE021A34EE400AFE
:10139000183088ED026A85ED010A31EE030A089CD7
:1013A0000B9085ED000A069D07980EF1080E083493
:1013B00010350830A9F10809083AABF1080BAAF179
:1013C000080ADBE697ED026A97ED037A64EE060AF7
:1013D00065EE071A25EE065A24EE074A30EEA16A9A
:1013E00035EE444A84ED026A84ED034A90ED044AE6
:1013F00090ED055A22EE046A23EE057A23EE043AB4
:1014000022EE052A36EE074A33EE422A8CED024AD6
:101410008CED032A9EED062A9EED073A029D20EEF2
:10142000024A21EE035A21EE021A20EE030A0A981C
:10143000059A34EE052A31EE400A2946042388ED48
:10144000022A88ED030A00F0B9F8049C009862684B
:101450002946042300F0B2F8626801982946042363
:1014600000F0ACF862680398294604230EB0BDEC86
:10147000088B01B000F002B800F0A0B830BCBDE8A5
:10148000C04FFFF7F9BF0000F0B590ED000A4C1E09
:101490004FF0000CBCEB940F00F1040E3BD0012781
:1014A0002646A50867F301064FF0000C042700BF8D
:1014B0009EED001A9EED012A9EED023AB4EE410A1D
:1014C0009EED034AF1EE10FABCBFB0EE410AA7F15F
:1014D000030CB4EE420AF1EE10FABCBFB0EE420AC1
:1014E000A7F1020CB4EE430AF1EE10FABCBFB0EE65
:1014F000430AA7F1010CB4EE440AF1EE10FABCBFA6
:10150000B0EE440ABC46013D07F104070EF1100E8F
:10151000CED100EB860E14F003000ED0404200BF87
:10152000BEEC011AB4EE410AF1EE10FABCBFB0EE07
:10153000410A01EB000C0130F2D382ED000AC3F83E
:1015400000C0F0BD80B50023B3EB910F1ED09FED1E
:101550001A0A4FEA910E21F0030C034693ED001A8C
:1015600093ED012A93ED023A30EE010A93ED034A1E
:1015700030EE020A30EE030A30EE040ABEF1010E2C
:1015800003F11003EAD100EB8C0001E09FED0A0AA1
:1015900011F0030306D000BFB0EC011A013B30EE9E
:1015A000010AF9D101EE101AB8EE411A80EE010AD3
:1015B00082ED000A80BD00BF000000002DE9F04F61
:1015C00081B02DED108BA0B0DFED04CA0090043087
:1015D000CDE902320190CDE91E1101E0F304353F5F
:1015E0001F9A4FF0000AD308DF00A7EBD200C0001B
:1015F0001D904FEAC20C03EB430503EB8302580135
:1016000006931E01019B2C014FEAC20EED00CDE9AD
:101610000C0ECDE90A5600BF0A9D191803EB050907
:101620001D9D03EB0E0003EB070810ED014A8646F3
:101630009A19181903EB050B13ED011A11ED012A84
:1016400018ED013A12ED017A50ED010A59ED011A37
:101650005BED012A31EE025A33EE046A77EE203A4E
:1016600071EEA24A75EE235A76EE246A75EEA67ADA
:1016700043ED017A75EEE65AD8ED007A9EED008AC8
:1016800099ED00BA9BED00CAD3ED006A41ED015A15
:10169000D1ED005A92ED009A90ED00AA37EE88EA5B
:1016A0007BEE0C8A36EEA5DA39EE0AFA35EE635A8D
:1016B00036EE646A7EEE684A7DEE0F9A7DEE4F3A12
:1016C00035EE24DA35EE645A7EEE28AA02ED01DA10
:1016D00033EEC6DA00ED015A36EE235A31EE421AE5
:1016E00033EE442A37EE603A31EEE24A37EEC86A0A
:1016F0007BEE4C0A79EEAABA79EEEA9A72EE441AB7
:1017000032EE042A36EE604A36EE206AC3ED00BAA5
:10171000C1ED009A82ED00DA80ED005A36EEE55A0E
:1017200039EE4A7A61EEAC1A22EE2C2A24EE2C4ACB
:1017300026EE2C6A71EE210A73EE022A75EE043A47
:1017400077EE064A31EE611A33EE422A35EE443A1C
:1017500037EE464A2646744670EEA45A70EEE40A06
:1017600031EE045A1F9A1E9948ED015A73EEE25A5F
:101770004BED010A72EEA30A204604ED015A33EE46
:10178000425ADDF834E0C8ED005ACBED000A84ED92
:10179000005A0C9831EE441A34460B9E924409EDDF
:1017A000011A32EE031A8A45634489ED001AFFF4E8
:1017B00033AF1F984028C0F0D4810298009E80B2B9
:1017C00005900698CDE90E4CC0EBC000C000002487
:1017D00001251097049000BF0598039B044403EB78
:1017E000C40191ED000A03EB04128DED1D0A92ED88
:1017F000000A04EB440203EBC2008DED1C0A90EDDD
:10180000000A03EB44118DED1B0A91ED000A04EB75
:101810008401C80003EBC1018DED1A0A91ED000AA5
:101820004FEAC20A4FEA021B03EB02128DED190ABE
:1018300092ED000AC4EBC4024FEAC40CD10003EBE2
:10184000C2028DED180A92ED000A0CF104024FEA73
:10185000041E1A448DED170A92ED000A0EF10402DF
:101860001A448DED160A92ED000A0AF104024FEABD
:1018700044191A448DED150A92ED000A09F104028B
:101880001A448DED140A92ED000A043018448DEDCF
:10189000130A90ED000A0BF1040018448DED120AB2
:1018A00090ED000A081D18440994D0ED006A0796CF
:1018B000B44608952B46DDE90C54DDE90A76DDF8DF
:1018C00010808DED110A00BF10980E990CEB0509E0
:1018D0000CEB000E0CEB04000CEB060B0CEB010AFE
:1018E0000CEB07020CEB0801DCED027A99ED028AA1
:1018F0009EED029A90ED02AA9BED02DA9AED02EAC1
:1019000092ED02FAD1ED028A37EE88BA39EE0ACAB0
:101910007DEE0E9A7FEE28AA7BEE29BAF0EE6C3AA5
:101920007CEE2ACA7BEEACDACCED02DA7BEEECBAC6
:10193000DCED03CAD9ED03DADEED03EAD0ED03FAFC
:101940009BED030A9AED031A92ED032A91ED033AF7
:101950003CEEAD4A3EEEAF5A30EE016A32EE037A0B
:1019600074EE060A75EE071ADDED1A4ADDED135A1C
:1019700070EEA12A70EEE10ACCED032A64EEAB1AF8
:1019800065EEA02A71EEA21A64EEA00A65EEAB2AFB
:1019900070EEE20AC9ED021AC9ED030A7BEE690A8C
:1019A0007CEE6A1A34EE464A35EE475A9DED1CCA63
:1019B000DDED154A30EE856A34EE617A6CEE062A6A
:1019C00024EE87BA2CEE077A24EE866A30EEC55AEA
:1019D00031EE844ADDED180ADDED111A37EE466A64
:1019E0008BED036A20EE856A21EE847A20EE844A2C
:1019F00021EE855A37EE066A34EE454A39EE4A5AE8
:101A00003FEE687A7EEEEF1A30EE410A32EE431A6C
:101A10007BEE222A35EE472A35EE073A31EEC15ADF
:101A200031EE811ACBED022A8AED026A8AED034A71
:101A300037EEC84A3DEE4E6A7CEEED0A22EE232ACE
:101A400023EE233A25EE235A21EE231AF0EE63CA41
:101A500034EE027A76EE031A70EE852A70EE017A81
:101A6000DDED1D3ADDED164A37EE278A32EEE19ABA
:101A700023EE88AA24EE89BA23EE899ADDED173A7F
:101A800037EE677A71EEA21A63EE872A66EEA17AC4
:101A900063EEA11A26EE877A24EE888A31EEC77AA1
:101AA00034EE422A36EE433A30EEC54A30EE410A71
:101AB000DDED190ADDED121A39EE488A32EE001A10
:101AC00034EE435A8EED038A81ED037A20EE816A6B
:101AD00021EE857A20EE855A21EE811A3AEE0BAA84
:101AE00072EEA72A36EE076A35EE411A8EED02AA8B
:101AF000C1ED022A80ED026A80ED031A1F9833EED1
:101B0000041A03441E989DED1B4A9DED145A32EEB3
:101B1000400A83420F9824EE002A25EE013A24EE73
:101B2000011A25EE000A32EE032A31EE400A8444FF
:101B300082ED022A82ED030AFFF4C6AE089D0698E4
:101B4000079E0135099C854206F10806FFF444AE64
:101B50000298C00002901F983F2806981F903FF6F9
:101B60003FAD20B000F003B801B000F006B8BDEC06
:101B7000088BBDEC08CBFFF7F7BF30BCBDE8C08FCA
:101B8000B0B52DED028B15460022B2EB910F24D09B
:101B90009FED290A8A0821F00303044694ED001AF8
:101BA00094ED012A94ED023A21EE011A94ED034AD4
:101BB00030EE010A22EE021A30EE010A23EE031A79
:101BC00030EE010A24EE041A30EE010A013A04F163
:101BD0001004E3D100EB830001E09FED170A11F040
:101BE000030207D0B0EC011A013A21EE011A30EEDF
:101BF000010AF7D101EE101AB8EE411A80EE018AFF
:101C0000B5EE408AF1EE10FA02DA9FED0B0A08E019
:101C1000B0EE480A09F03CFDB4EE400AF1EE10FACD
:101C200004D685ED000ABDEC028BB0BDB0EE480ACB
:101C300009F02EFDF5E700BF000000000F48D0F8C6
:101C40007C0200EE100ADFED0E0A30EE600A10EEA4
:101C5000100A0A49C1F87C020846D0F87C0200EE5E
:101C6000100AB5EEC00AF1EE10FA05D89FED050A8C
:101C700010EE100AC1F87C027047000058080020DE
:101C800009F2143C000000000948D0F87C0200EE84
:101C9000100AF2EE040AB4EEE00AF1EE10FA06D8E9
:101CA0009FED040A10EE100A0149C1F87C0270474A
:101CB000580800200000C84210B50348007808B159
:101CC00000F072F810BD000049000020F0B58DB0A2
:101CD00006460D4634216846FEF749FB0024002DD8
:101CE00038DD00BF0BE0012202EB4402B15C16F8C4
:101CF000140000F0BAF90DF80400601CC4B205EB42
:101D0000D571B4EB610FEEDB9DF800007E2825D184
:101D10009DF805007E2821D19DF8010000069DF860
:101D2000021040EA01409DF8031040EA01209DF8AE
:101D3000041040EA01073A4609A1002006F0F4FC2D
:101D40000F48874205D800BF0E48C0F8967907F0C3
:101D50006FF803E00CA1002006F0E6FC0DB0F0BD2A
:101D60004150505F434F4E46204C6F726120736C60
:101D700065657054696D653A256420730D0A00002D
:101D8000805101005808002041505020436F6E667A
:101D90002046726F6D204C6F7261206973204E4F28
:101DA0004E450D0A0000000010B588B09D48079010
:101DB000182101A8FEF7DBFA00247E20079908709D
:101DC00000200799A1F80300C820079948710798D7
:101DD000841D01208DF8040004208DF80500924830
:101DE000D0F86405CDF8060001A9204605F01AFFD9
:101DF000044402208DF8040004208DF805008A4870
:101E0000D0F88408CDF8060001A9204605F00AFFA5
:101E1000044403208DF8040004208DF80500824856
:101E2000D0F8B408CDF8060001A9204605F0FAFE66
:101E3000044404208DF804008DF805007A48D0F899
:101E40001407CDF8060001A9204605F0EBFE044476
:101E500005208DF8040004208DF805007248D0F8A4
:101E6000E408CDF8060001A9204605F0DBFE044495
:101E700006208DF8040004208DF805006A48D0F88B
:101E80006805CDF8060001A9204605F0CBFE044404
:101E900007208DF8040004208DF805006248D0F872
:101EA0008808CDF8060001A9204605F0BBFE0444D1
:101EB00008208DF8040004208DF805005A48D0F859
:101EC000B808CDF8060001A9204605F0ABFE044491
:101ED00009208DF8040004208DF805005248D0F840
:101EE0001807CDF8060001A9204605F09BFE044422
:101EF0000A208DF8040004208DF805004A48D0F827
:101F0000E808CDF8060001A9204605F08BFE044440
:101F10000B208DF8040004208DF805004248D0F80D
:101F20006005CDF8060001A9204605F07BFE0444BB
:101F30000C208DF8040004208DF805003A48D0F8F4
:101F40008008CDF8060001A9204605F06BFE044488
:101F50000D208DF8040004208DF805003248D0F8DB
:101F6000B008CDF8060001A9204605F05BFE044448
:101F70000E208DF8040004208DF805002A48D0F8C2
:101F80001007CDF8060001A9204605F04BFE0444D9
:101F90000F208DF8040004208DF805002248D0F8A9
:101FA000E008CDF8060001A9204605F03BFE0444F8
:101FB00010208DF8040004208DF805001A48D0F890
:101FC0002402CDF8060001A9204605F02BFE0444AA
:101FD00011208DF8040004208DF805001348D0F876
:101FE0007C02CDF8060001A9204605F01BFE044442
:101FF0000798201A401C0799A1F801007E20207044
:102000000798B0F80100401E81B207A805F01AFE3B
:1020100060700798B0F80110024800F01DF808B091
:1020200010BD0000A8200620F8110020580800204C
:1020300038B5002400200090012001F0DFFB0028CB
:1020400009DD6946012001F09BFA04469DF8001065
:1020500020460AF097F838BD70B504460D462A466A
:102060002146012001F0DAFE70BD10B502460023C2
:102070000024302A04DB392A02DC1007030E0AE0B0
:10208000612A05DB662A03DCD01F0007030E02E08D
:10209000D01F0007030E302905DB392903DCA1F12D
:1020A0003000C4B20AE0612905DB662903DCA1F136
:1020B0005700C4B202E0A1F13700C4B21819C0B28F
:1020C00010BD10B50AF0C2F810BD000010B5002414
:1020D00000BF23E04FF00060224941F824000020B7
:1020E000214941F82400214941F824009FED200AAC
:1020F000204800EB840080ED000A00201E4941F8D2
:1021000024001E4908551E4941F824001D4941F884
:1021100024001D4941F82400601CC4B2042CD9DB02
:10212000322006F055FA00F067FD012006F050FA63
:1021300000F070FD00F074FC4FF000600949086089
:10214000012000F0EFFC400306494860032000F046
:10215000E9FC40030349886000F0AEF900F04CFD53
:1021600010BD0000A01F0020B01F0020C01F0020D5
:1021700000000000B0130020D01F0020F01F00203E
:10218000E01F0020FC1F00202C2000202DE9F04142
:102190000026B04600270025002400F05BFC064620
:1021A000B4480078012821D1C0033080B24840688B
:1021B000C0F34F3070804FF40040B080AE4880686C
:1021C000C0F34F30F0804FF400403081AA4840689F
:1021D000C0F34F3070814FF40040B081A648806852
:1021E000C0F34F30F0810020A24908704FF0000882
:1021F00039E1002709E13588384600F035FC04460E
:102200009E4840F824509E48005D03287DD1002C54
:1022100069D1994850F8240040F6FF7180FB011005
:10222000020542EA11304019934941F8240008465A
:1022300050F82400A5EB2035924800EB840000689C
:10224000B0F5804F20D1904850F8240040194BF24F
:10225000EC01A0FB01108D4850F8240046F2D91281
:1022600000FB02F0081A894941F82400084650F89A
:1022700024004FEA204041F82400834840F82450CD
:10228000084650F824502DE07E4800EB840000689A
:10229000B0F5005F26D07B4800EB84000068B0F505
:1022A000006F1FD1784850F82400411941F683305F
:1022B000A1FB0010754850F824004CF6F80200FB12
:1022C00002F00818714941F82400084650F824002B
:1022D0004FEA204041F824006B4840F8245008465B
:1022E00050F8245064E0644850F8240041F6FF712F
:1022F00080FB0110C20442EA513040195E4941F8A6
:102300002400084650F8240000E075E0A5EB603595
:102310005C4800EB84000068B0F5005F20D15A48AB
:1023200050F82400401949F26961A0FB0110574898
:1023300050F8240042F6D34200FB02F0081A534939
:1023400041F82400084650F824004FEA204041F8A4
:1023500024004D4840F82450084650F8245026E008
:10236000484800EB84000068B0F5006F1FD1464874
:1023700050F82400411943F24620A1FB00104348C5
:1023800050F8240049F6723200FB02F008183F4969
:1023900041F82400084650F827004FEA204041F851
:1023A0002400394840F82450084650F8245000BF13
:1023B00000BF374850F8240000F10100344941F8CB
:1023C0002400084650F82410324850F82400814276
:1023D00013D300202E4941F824002F4850F8242020
:1023E000214628B200F08AF82B4850F82400401CFF
:1023F000294941F8240000E000BFB61C27480068C6
:10240000401C26490860781CC7B2082FFFF6F3AEBF
:1024100022480068B0F5004F21D3002708E00020D3
:102420001D4941F827001A4941F82700781CC7B216
:10243000042FF4DB00201949086019490978481C69
:1024400000EBD0714910A0EB4101154A1170022137
:10245000012001F077FF13A1002006F065F908F1D3
:10246000010000F0FF08B8F1800FFFF6C2AEBDE832
:10247000F081000048000020A01F00205C20002008
:1024800096080020080A0020D01F0020B01F00205E
:10249000FC1F0020201300202C20002044000020DE
:1024A0004000002053616D706C6520436F6D706C4F
:1024B0006574650D0A00000008B500200BA10968CD
:1024C000009100BF0FE00A4951F820201DF80030AC
:1024D000084901EB83010968B2FBF1F2064941F8B2
:1024E0002020411CC8B20428EDDB08BD0001020316
:1024F00004020108080A00202013002010B531B1A1
:1025000001290CD0022914D003292AD11DE0164B31
:10251000164C247803EB044323F8120022E0134BFB
:102520001B7803EB4303124C04EB833323F81200B4
:1025300018E00E4B1B7803EB43030D4C04EB833385
:1025400003F5804323F812000CE0084B1B7803EBE3
:102550004303074C04EB833303F5004323F81200D5
:1025600000E000BF00BF10BD7C2000204000002024
:102570007C2002202DE9F041F2B0C82140A8FDF7EF
:10258000F6FEC8210EA8FDF7F2FE00260024002565
:1025900000200D900C90A948D0F87C0200EE100AA3
:1025A000F2EE040A20EE200ABCEEC00A10EE100A79
:1025B00080B20D90A24890ED890AF2EE040A20EE56
:1025C000200ABDEEC00A10EE100A00B20C900020E6
:1025D000B3E09C4901EB800191ED000ADFED9A0A1E
:1025E000B4EEE00AF1EE10FA10D8964901EB800142
:1025F00091ED000AF2EE040A20EE200ABCEEC00AB9
:1026000010EE101A02AA22F8101004E04EF6602113
:1026100002AA22F810108D4901EB800191ED000A09
:10262000DFED890AB4EEE00AF1EE10FA11D887491D
:1026300001EB800191ED000AF2EE040A20EE200A7F
:10264000BCEEC00A10EE101A8AB204A921F81020BC
:1026500004E04EF6602204A921F810207B493031B5
:1026600001EB800191ED000ADFED770AB4EEE00A9C
:10267000F1EE10FA12D87549303101EB800191ED7D
:10268000000AF2EE040A20EE200ABCEEC00A10EEA8
:10269000101A8AB206A921F8102004E04EF6602232
:1026A00006A921F810206A4901EB800191ED000A8A
:1026B000DFED650AB4EEE00AF1EE10FA11D86449D4
:1026C00001EB800191ED000AF2EE040A20EE200AEF
:1026D000BCEEC00A10EE101A8AB208A921F8102028
:1026E00004E04EF6602208A921F810205749603115
:1026F00001EB800191ED000ADFED530AB4EEE00A30
:10270000F1EE10FA12D85149603101EB800191EDE0
:10271000000AF2EE040A20EE200ABCEEC00A10EE17
:10272000101A8AB20AA921F8102004E04EF660229D
:102730000AA921F81020411CC8B20328FFF649AFAE
:102740003E48416840918068419042AC00202EE0B4
:102750000A2101FB004102AA02EB400212880A8012
:102760000A2101FB004204A901EB400109885180C4
:102770000A2101FB004206A901EB40010988918072
:102780000A2101FB004208A901EB40010988D18020
:102790000A2101FB00420AA901EB400109881181CD
:1027A00000EB8001490001F10A05411CC8B2032871
:1027B000CEDB6019BDF830100180A81C85B260190D
:1027C000BDF834100180A81C85B24FF0000868469F
:1027D00001F0AAF8684605F0C3FD80466019C0F80C
:1027E0000080281D85B200270CE040AAD35DC6F109
:1027F000C8010EAA901917A208F04EF8304486B20C
:10280000781C87B205F108008742EEDB0EA8FDF7C1
:10281000CBFD07463B460EAA10A1002005F084FF21
:102820000EA8FDF7C1FD87B239460EA800F0A2FD43
:10283000FFF704FA002072B0BDE8F08158080020CC
:10284000F8110020581700200080BB45781A00209E
:1028500008190020253032580000000054686973C0
:102860002056616C75652077696C6C2073656E64A9
:102870003A2573206C656E3A25640D0A000000004D
:1028800010B505A1002005F04FFF00224FF4805144
:10289000074802F0D0FB10BD4150505F506F776584
:1028A00072204156332E3356204F4E0D0A00000041
:1028B0000010004810B505A1002005F035FF0122E9
:1028C0001103084802F0B7FB10BD00004150505FF3
:1028D000506F776572204156332E3356204F4E0D80
:1028E0000A000000001000480648006900F48070EB
:1028F00028B14FF48070034988610220704701209D
:10290000FCE700000070004010B5044644B11F20F1
:10291000044988610421204601F03AF802F030FDB4
:1029200010BD00000070004000B587B000BF18481F
:10293000C06C40F010001649C8640846C06C00F036
:102940001000019000BF00BF00BF0846C06C40F0FF
:102950000200C8640846C06C00F00200019000BF8D
:1029600000BF01200390000302900320059002A9FC
:10297000084802F05FFA4FF40050029002A906489E
:1029800002F058FAFFF77CFF00F008F807B000BD2E
:1029900000100240001000480004004810B505A1D6
:1029A000002005F0C1FE00224FF40051074802F05C
:1029B00042FB10BD4150505F506F7765725F4C4DC8
:1029C00037385F4F46460D0A0000000000040048FB
:1029D00010B505A1002005F0A7FE0122510307480C
:1029E00002F029FB10BD00004150505F506F776529
:1029F000725F4C4D37385F4F4E0D0A00000400489F
:102A000010B506480078012806D10121084601F0DA
:102A1000F3FD00200149087010BD0000D600002021
:102A200000200449088004490880044908800449BA
:102A300008707047D0000020D2000020D400002091
:102A4000D600002013B50C4622466946002001F04E
:102A500039F81CBD02480349098800EB4100704762
:102A60000C390620D400002001460148405C704724
:102A7000FC02010810B500F0C3F824482449098875
:102A800030F81110234802880088401C214B188020
:102A9000214820F8121018460088B0F5806F06D142
:102AA00000201E49088001201D4908700EE01948C9
:102AB0000088B0F5006F09DB0020164908804FF44C
:102AC0008060164908800120154908701048008868
:102AD000401C0F4908800888C11700EB5171C910CC
:102AE000A0EBC1010A4A11800A4909881288881A94
:102AF000C11700EB5171C910A0EBC10121B1002039
:102B0000034908800349088010BD0000FC380620F6
:102B1000D2000020D00000200C390620D400002074
:102B2000D60000200146024830F81100704700002E
:102B3000FC38062010B500F013F800F06FF802A181
:102B4000002005F0F1FD10BD4253505F414437367F
:102B5000383220697320496E69740D0A0000000044
:102B600000B587B000BF0D48C06C40F002000B49B3
:102B7000C8640846C06C00F00200019000BF00BFAE
:102B80000120039002900320059002A9044802F05E
:102B900051F900F053FF07B000BD000000100240E3
:102BA0000004004810B500220121024802F043FA57
:102BB00010BD00000004004870B5002500240B483B
:102BC0000B490988455C43F6712040EAC5144FF66D
:102BD000FF7000EA8404FFF7E5FF0648044A128804
:102BE00000EB42012046FFF72DFF70BDF002010807
:102BF000D2000020FC38062010B500F099FF10BD6F
:102C000010B501221146024802F015FA10BD00006D
:102C10000004004810B500F093FF10BD10B500F09F
:102C200097FF10BD30B503460C46002003E0255C3D
:102C30001D54451CA8B29042F9DB104630BD00007F
:102C40002DE9F04F87B004460E46934600200390CE
:102C500004900590069002908146019082460025DE
:102C6000A4F10064B246A7E0C4F30B000190019800
:102C7000C0F580595348008880B24FF6FF718842F2
:102C800002D14FF4001003E04E4800880004800990
:102C9000B4EB500F0DD201200490200B05904FF0A3
:102CA0000062059802EB0031D2134748FFF7BAFFE4
:102CB0002DE0022004904348008880B24FF6FF7157
:102CC000884202D14FF4001003E03E48008800041F
:102CD0008009A4EB5000000B05904FF000620598AE
:102CE00002EB00323748008880B24FF6FF739842FB
:102CF00002D14FF4001003E032480088000480093C
:102D000002EB50014FF480522F48FFF78BFF012058
:102D1000069000200390019881B24B4652462A4803
:102D20000AF0C1F8CA4402F05DF802A903A801F054
:102D300067FF0090002534E0049801280FD1224855
:102D40002844D0E900734FF00062059802EB003090
:102D500041193A46002001F0E5FF00901EE04FF0D7
:102D60000062059802EB00321648008880B24FF6E8
:102D7000FF73984202D14FF4001003E0114800881D
:102D80000004800902EB500041190F482844D0E9A3
:102D900000733A46002001F0C5FF009005F10800DD
:102DA00085B2B5F5805FC7D301F0B2FF4C44AAEB02
:102DB0000600584500DB00E056E700BF009807B06A
:102DC00000F004B8E075FF1FB021062030BCBDE85C
:102DD000C08F10B501F0C2F8FFF7A6FD00F0B0FDFE
:102DE00010BD30B505460C46012C04D0022C09D08C
:102DF000032C17D10EE064231E220321284600F085
:102E000075FB10E04FF4FA731E220221284600F0F1
:102E10006DFB08E04FF47A7332220321284600F05C
:102E200065FB00E000BF00BF30BD0000002001498D
:102E300008707047D40400200148007870470000F3
:102E4000D404002010B500F004F801200AF0FCF8CA
:102E500010BD10B5002000F03FFF002000F0C6FFBD
:102E600010BD000010B50AF0C9F8002876DD0AF0A0
:102E7000B7F846490978884209D1002043490870CB
:102E80000AF0C2F80221012004F0B2FF10BD0AF0DE
:102E9000A7F83E490870084602783DA1002005F0D9
:102EA00043FC3A4800780D286CD2DFE800F0070EAA
:102EB0006B1B6B286B356B586B4568000AF0A4F8E8
:102EC0003CA1002005F030FC5DE03D48FDF76CFAC8
:102ED00084B221463A4800F03DFA3AA1002005F0BC
:102EE00023FC50E03A48FDF75FFA84B221463848A7
:102EF00000F030FA37A1002005F016FC43E0394815
:102F0000FDF752FA84B22146364800F023FA36A182
:102F1000002005F009FC36E000F026FA3748B0F84A
:102F2000C81000F017FA3548B0F8C830024634A18E
:102F3000002005F0F9FB26E03748FDF735FA84B2AA
:102F40002146354800F006FA0AF09CF8002000F00F
:102F50006BFC32A1002005F0E7FB14E014E0002038
:102F60000A4908703048FDF71FFA84B221462E48FE
:102F700000F0F0F92DA1002005F0D6FB03E00AF0E7
:102F800043F800BF00BF00BF00BF7FE7D5040020AB
:102F90004253505F4C4D37385F52657150726F63CA
:102FA00065737320537461747573203A25640D0A38
:102FB000000000005245512049444C450D0A0000D4
:102FC000080301085245512041540D0A0000000039
:102FD0000F0301085245512041542B5645523D3FA5
:102FE0000D0A00001C0301085245512041542B4496
:102FF000414444523D3F0D0A000000000C490620A8
:103000005245512041542B53454E44423D25732097
:1030100025640D0A000000004603010852455120B6
:1030200041545A0D0A0000004E0301085245512038
:1030300041542B52454356423D3F0D0A00000000CB
:10304000F8B5002500200090694600F099FA054681
:10305000002000F0D3FB0446224689A1002005F0A1
:1030600063FB09F0BDFF07287BD006DC012809D0EF
:1030700003282BD0052872D14CE0092870D00C28E9
:10308000F9D1DFE086A12846FDF77CF978B109F097
:10309000BBFF002000F0B2FB002804DD022108463F
:1030A00004F0A6FE0CE0032009F0CEFF08E00020AB
:1030B00000F0A4FB002803DD0221084604F098FE7E
:1030C0002A4678A1002005F02FFBCDE074A1284608
:1030D000FDF758F978B109F097FF002000F08EFB5A
:1030E000002804DD0221084604F082FE0CE00520E1
:1030F00009F0AAFF08E0002000F080FB002803DDB3
:103100000221084604F074FE2A466AA1002005F058
:103110000BFBA9E062A12846FDF734F978B109F06C
:1031200073FF002000F06AFB002804DD022108463E
:1031300004F05EFE0CE00C2009F086FF08E00020A1
:1031400000F05CFB002803DD0221084604F050FE7D
:103150002A465EA1002005F0E7FA85E001E082E062
:1031600035E04FA12846FDF70DF9C8B10121002037
:10317000FFF737FEFFF75AFE09F046FF002000F088
:103180003DFB002804DD0221084604F031FE16E074
:103190004FF47A7005F01CFA092009F055FF0EE093
:1031A000002000F02BFB002804DD0221084604F07B
:1031B0001FFE04E009F028FF0B2009F045FF9DF8F1
:1031C00000302A4646A1002005F0AEFA4CE009F096
:1031D0001BFF002449A12846FDF7D4F804469DF8BA
:1031E00000302A4646A1002005F09EFACCB14DA140
:1031F000002005F099FA601CFDF7D6F8C6B23146FA
:10320000601CFEF763FD002000F0F8FA002804DDE2
:103210000221084604F0ECFD13E00C2009F014FF35
:103220000FE0002000F0EAFA002804DD0221084641
:1032300004F0DEFD05E0C82005F0CAF9092009F018
:1032400003FF11E0002000F0D9FA002803DD02217D
:10325000084604F0CDFD9DF800302A4636A1002036
:1032600005F062FA00E000BF00BF002000F0C6FADF
:10327000002803DD0221084604F0BAFDF8BD000075
:103280004253505F51756575655F4465717565752D
:103290006520436F756E743A25640D0A00000000C6
:1032A0004F4B000041545F524553503A25730D0A6D
:1032B0000000000041545F56455253494F4E205282
:1032C0004553503A25730D0A000000004154204137
:1032D00044445220524553503A25730D0A000000D1
:1032E00041542053454E44204220524553503A25E4
:1032F00073206C656E203A25640D0A003A3765002C
:103300004C4D37385F5354415455535F52455642E4
:103310005F5245513A2573206C656E203A25640D45
:103320000A000000454E544552204C6F7261204304
:103330004F4E460D0A0000004C4D37385F53544144
:103340005455535F4F4B3A2573206C656E203A25D8
:10335000640D0A0070B504460D462A462146002039
:1033600000F05CFD70BD000001200149087070474D
:10337000D404002070B505460C460E220F491048B3
:10338000FCF7DCFF0E480D3022462946FCF7D6FF3D
:103390000D210B480D3001550A21204441700021B8
:1033A00007480D302044817004F10F000449A1F852
:1033B000C800072009F048FE002070BD2B0301085B
:1033C0000C49062010B52248007A012804D00228B2
:1033D00006D0032839D137E002201D49087235E0B4
:1033E00003201B49087208460068486000200860F6
:1033F000084690ED010AF8EE400A9FED161A9FED7F
:10340000160A10EE810A1548B0F9820200EE900A01
:10341000F8EEE00A9FED121A00EE810A084680EDF0
:10342000030A04204872084690ED030ADFED0D0AF6
:10343000B4EEE00AF1EE10FA05D3D0ED030AB0EED7
:10344000600A09F027FE01E000E000BF00BF10BDE8
:10345000700700200000803D00004842580800200E
:10346000CDCCCC3D000040C210B5202001F0D4FCF2
:1034700003480068401C024908600120087210BD22
:10348000700700200148407A704700007007002054
:1034900000B585B005200D49487200200CE00B49AD
:1034A000103101EB800191ED000A694601EB8001CA
:1034B00081ED000A411CC8B20528F0DB05216846F1
:1034C00000F0BAFD9DED020A05B000BD70070020B6
:1034D00010B50AF0FDF8172001F03CFE012204218E
:1034E000014801F0A8FD10BD0004004870B54C066D
:1034F000240E00EBC005104E06EB45052C7103FBB6
:1035000002F4642594FBF5F400EBC00506EB4505D9
:10351000EC8100EBC004354605EB4404E4891C1B38
:1035200000EBC00506EB45052C82012400EBC0052D
:1035300006F8154070BD0000D804002070B50025C5
:1035400000241AE0204609F03FFD0546012D04D075
:10355000022D06D0032D0CD107E0204609F0B8FC5F
:1035600008E0204609F02EFD04E0204609F036FD73
:1035700000E000BF00BF601CC4B2012CE2DB70BDE4
:1035800070B504460D46002614B1012C71D137E008
:103590003A4890F8310100282CDD384890F8300185
:1035A000652110FB01F035494618084690F83001B6
:1035B000652110FB01F03149084490F8640028703F
:1035C000084690F83001401C81F83001084690F818
:1035D000300191F8321190FBF1F201FB1200274902
:1035E00081F83001084690F83101401E81F8310120
:1035F000304670BD224622A1002005F095F839E042
:10360000244890F8310100282CDD224890F8300140
:10361000652110FB01F01F494618084690F830015B
:10362000652110FB01F01B49084490F864002870E4
:10363000084690F83001401C81F83001084690F8A7
:10364000300191F8321190FBF1F201FB12001149A7
:1036500081F83001084690F83101401E81F83101AF
:103660003046C6E7224606A1002005F05DF801E0DD
:10367000FFE700BF00BF0020BBE7000008050020F7
:10368000517565756520256420697320456D7074DA
:10369000790D0A003B06002070B505460E4614461B
:1036A00015B1012D7DD148E0642C3FDC002C3DDDBF
:1036B000494991F82F11652211FB02F1464A8818F9
:1036C0006421FCF754FE444991F82F11652211FB47
:1036D00002F1414A881822463146FCF72FFE3E4946
:1036E00091F82F11652211FB02F13B4A114481F838
:1036F0006440104690F82F01401C114681F82F01BC
:10370000084690F83101401C81F83101084690F8D4
:103710002F01032190FBF1F201FB12002E4981F8E9
:103720002F010121022004F063FB05E023462A4615
:103730002AA1002004F0F8FF4BE0642C41DC002CAF
:103740003FDD2D4991F82F11652211FB02F12A4A24
:1037500088186421FCF70BFE274991F82F11652288
:1037600011FB02F1244A881822463146FCF7E6FD97
:10377000214991F82F11652211FB02F11E4A1144D3
:1037800081F86440104690F82F01401C114681F8E2
:103790002F01084690F83101401C81F8310108469C
:1037A00000E015E090F82F01032190FBF1F201FBFE
:1037B0001200114981F82F010121084600F0F8FCA0
:1037C00005E023462A4605A1002004F0ADFF00E0F5
:1037D00000BF00BF70BD0000080500205175657571
:1037E00065202564206973206F766572206C656E94
:1037F0002025640D0A0000003B0600200146002041
:1038000011B1012908D103E0054A92F8310104E021
:10381000044A92F8310100E000BF00BF7047000089
:10382000080500203B06002010B1012812D108E055
:1038300000210A4A82F82F1182F8311182F83011E2
:1038400009E00021064A82F82F1182F8311182F82E
:10385000301100E000BF00BF7047000008050020E5
:103860003B0600202DE9F04F04460D461646032D79
:103870000CDBAC46642094FBF0F800FB1840C2B2AD
:10388000642094FBF0F0C3B2374610E005F10C0061
:1038900000F0FF0C601E4FF0640890FBF8F908FB85
:1038A0001900C2B2601E90FBF8F0C3B237460CF1AB
:1038B00001094FF01A0A09FB0AF94FF00A0A99FBAD
:1038C000FAF94FEAE27A02EB9A7A02EBAA0A4FEA95
:1038D000E37B03EB9B7B0AEBAB0A4FF0020B0BFB8A
:1038E00013AAD144B944A9F101090FFA89F109B920
:1038F000072111E000290ADA48424FF0070890FB3F
:10390000F8F908FB1900C0F1070001B204E0072034
:1039100091FBF0F800FB181101B90721C8B200F0C3
:1039200000B830BCBDE8C08F10B5044604F014FEEA
:103930000248016821604068606010BD9A0700205D
:103940001CB51148114908600121104802F076FDAC
:1039500004464AF2A850844213D004F0BBFC002075
:10396000022103461322CDE90010072140F2E37043
:1039700000F01CF84AF2A8520121044802F066FD4A
:1039800001E004F0A7FC1CBD00280040040A072049
:1039900070B504460D46044802F063FD2A462146F0
:1039A000014802F0B1FD70BD040A07202DE9F04383
:1039B00087B004460D4616461F46DDE90E891648B7
:1039C00016490860A4F5FA60C0B28DF81B008DF8A6
:1039D00019508DF81A60324629462046FFF742FFFB
:1039E0008DF81800002206A90C4802F0DDFE8DF8C3
:1039F00004708DF805808DF8069000208DF8070082
:103A000004900590002201A9044802F033FF012030
:103A100007B0BDE8F083000000280040040A07203A
:103A200010B5054802F0C4FF034802F0BCFF0128AE
:103A300001D1FFF71FF810BD9838062010B51648C1
:103A40001649086008211548C161002141610161E2
:103A50008162012101630721C1624FF47061C1607D
:103A60000021816001624FF482700C4948604FF47C
:103A700000710A48816100214163416203F046F808
:103A800020B907A1002004F04FFE03E008A10020A8
:103A900004F04AFE10BD00000030014098380620B6
:103AA000535049203120696E6974206F6B0D0A00F4
:103AB000535049203120696E6974206572720D0A75
:103AC0000000000070B506460C46154601232A4644
:103AD0002146024803F0BAF870BD0000983806206D
:103AE00010B501F0BFFA10BD10B5034803F08FFA0E
:103AF000FEF786FF10BD00009000002010B50248C0
:103B000003F0C6F910BD00009000002010B5074872
:103B1000006800F0010040B1044800684FF6FE71F3
:103B2000084002490860FFF747F810BD1034014013
:103B300010B5024803F0ACF910BD000050000020A1
:103B400010B5024803F0C0F910BD0000500000207D
:103B500000B587B000200390049005900690009077
:103B600001900290174803F02DF908B100F088FD8C
:103B7000154803F027F908B100F082FD4FF480509A
:103B8000039003A90F4803F0BBF908B100F078FDDA
:103B900003A90D4803F0B4F908B100F071FD00204D
:103BA0000090019002906946064803F0CFF808B1F2
:103BB00000F066FDFFF7A2FF04A1002004F0B4FDB1
:103BC00007B000BD500000209000002054494D383F
:103BD0002054494D3320496E69740D0A00000000DD
:103BE00010B5024800F0AEFE10BD0000EC36062015
:103BF00010B5024800F0A6FE10BD0000D837062020
:103C000010B512480068C069C0F30010A8B1104890
:103C1000028810490020FFF73FFD4FF496710D48D0
:103C2000FCF7A5FB00200A49088010200749096815
:103C3000086209A1002004F077FD044803F050FB5E
:103C4000082002490968086210BD0000603606209D
:103C50004C000020DC320620454E54455220556170
:103C60007274312049444C45200D0A0010B51248A9
:103C70000068C069C0F30010A8B11048028810495C
:103C80000120FFF709FD4FF496710D48FCF76FFB1B
:103C900000200A490880102007490968086209A124
:103CA000002004F041FD044803F01AFB08200249FB
:103CB0000968086210BD00004C3706204E00002045
:103CC00034350620454E54455220556172743220D9
:103CD00049444C45200D0A0010B50446002C36D14D
:103CE0003848394908604FF416504860002136487A
:103CF0008160C16001610C21416100218161C1616C
:103D000001624162002030498862084603F0DAFB14
:103D100018B12EA1002004F007FD00212A4803F06D
:103D2000ADFA18B129A1002004F0FEFC00212648BC
:103D300003F075FA18B125A1002004F0F5FC224823
:103D400003F045FA18B121A1002004F0EDFC012C8C
:103D500036D12448244908604FF4E13048600021FE
:103D600021488160C16001610C21416100218161B4
:103D7000C1610162416200201B498862084603F06C
:103D8000A1FB18B111A1002004F0CEFC00211648BF
:103D900003F074FA18B10DA1002004F0C5FC002155
:103DA000114803F03CFA18B108A1002004F0BCFC53
:103DB0000D4803F00CFA18B104A1002004F0B4FC83
:103DC00010BD0000003801406036062048616C5F7D
:103DD000557361727420496E6974204572720D0AC0
:103DE00000000000004400404C37062010B5044697
:103DF00024B901220549064803F0DCFC012C04D15A
:103E000001220449044803F0D5FC10BD4A000020FB
:103E1000603606204B0000204C37062070B5044663
:103E20000D46164614B1012C0CD105E03246294648
:103E3000064803F0ABFD06E032462946044803F08D
:103E4000A5FD00E000BF00BF70BD00006036062089
:103E50004C37062070B520A1002004F065FC01F06D
:103E6000F5FE044622461FA1002004F05DFC01F08F
:103E7000C3FE0446224620A1002004F055FC01F0B8
:103E8000D3FE044601F0BEFE054623462A461EA187
:103E9000002004F049FCFFF723FE04F02BFF01F0A3
:103EA000D5FE044622460FA1002004F03DFC01F09F
:103EB000A3FE0446224610A1002004F035FC01F0C8
:103EC000B3FE044601F09EFE054623462A460EA197
:103ED000002004F029FC70BD426F617264496E6974
:103EE000740D0A00537973436C6F636B467265718E
:103EF0003A25640D0A00000048434C4B4672657138
:103F00003A25640D0A00000050434C4B314672655F
:103F1000713A256420434C4B32467265713A2564F0
:103F20000D0A000010B50446C4EBC402094B03EBB4
:103F30008202928891B2C4EBC40253F8220000229C
:103F400001F079F8022004EBC401034A02EB4101BD
:103F5000487010BDEC040020D804002038B50024BF
:103F600000BF1C48C06C40F004001A49C8640846F1
:103F7000C06C00F00400009000BF00BF00BF0DE067
:103F8000C4EBC402144B03EB8202111DC4EBC40248
:103F900053F8220000F04EFF601CC4B2012CEFDB8E
:103FA000002413E0C4EBC4030B4D05EB83031A7E1E
:103FB000C4EBC40305EB83039B8899B2C4EBC40331
:103FC00055F8230001F037F8601CC4B2012CE9DB7E
:103FD00038BD000000100240EC04002010B504467B
:103FE000C4EBC402094B03EB8202928891B2C4EB8A
:103FF000C40253F82200012201F01DF8012004EB55
:10400000C401034A02EB4101487010BDEC040020DA
:10401000D804002010B50446C4EBC402054B03EBE2
:104020008202928891B2C4EBC40253F8220000F0DD
:10403000FBFF10BDEC04002030B50246DFED1C0A8A
:10404000B0EE600A002400232CE0002023E002EB05
:104050008005D5ED000A451C02EB850595ED001A9B
:10406000F4EEC10AF1EE10FA14DD02EB8005D5ED95
:10407000000AB0EE600A451C02EB8505D5ED000A8A
:1040800002EB8005C5ED000A451C02EB850585EDB8
:10409000000A0124401C4D1EED1A8542D7DC04B9EC
:1040A00030BD5B1C481E9842CFDC00BFF8E7000023
:1040B0000000000000BFFEE730B502460B464FF699
:1040C000FF70002112E0555C684000240AE000F017
:1040D000010525B14AF2010585EA600000E04010C3
:1040E000651CACB2082CF2DB4D1CA9B29942EADB8C
:1040F00030BD000008B50020009014A104F014FBAE
:1041000000BF0120FFF7E8FD0120FFF76FFE1CE074
:1041100013A1002004F008FB4FF0FF336A46194654
:1041200000200BF091F9009800F0010028B111A1D6
:10413000002004F0F9FAFDF77BFF009800F0020080
:1041400018B112A1002004F0EFFAE1E7436F6E66A8
:10415000205461736B20456E7465720D0A00000077
:10416000436F6E66205461736B204C6F6F700D0A45
:1041700000000000434F4E465F5441534B5F524591
:10418000565F4556454E540D0A000000436F6E665B
:10419000205461736B2046495253545F5441534B32
:1041A0005F54455354325F4556454E540D0A000046
:1041B00038B504460D46012D09D0022D11D100233A
:1041C00001222146084800680AF038FF0AE0002072
:1041D0000346012221460090034800680AF0C2FF0E
:1041E00000E000BF00BF38BD340000201CB5002433
:1041F0000648022100230A02CDE9001004A1074865
:104200000AF0E8FE044620461CBD000034000020F1
:10421000436F6E66205461736B000000F540000828
:1042200010B5FFF7DDFC10BD10B5FFF7E1FC10BDC8
:104230000F4B02689A4206D2426C92080D4B03EB78
:104240008202826406E0426C92080A4B1C3303EB44
:10425000820282640278083A1423B2FBF3F1054A21
:104260008032C26401F01C0301229A40026570474B
:10427000080402400008024001794A1E064B03EB85
:1042800082024265044A403282654A1E02F00303FC
:1042900001229A40C26570470009024030B5D0E95A
:1042A00013546C60446D14B1D0E916546C6090F8EE
:1042B000444004F01C050124AC40056C6C600468AB
:1042C00063608468102C04D10468A2600468E16013
:1042D00003E00468A1600468E26030BD08B5002016
:1042E00000900BA104F020FA10E04FF0FF336A4673
:1042F000194600200BF0A8F8009800F0010028B142
:1043000009A1002004F010FAFDF7DBFEEDE7000044
:1043100044617461456D75205461736B20456E7402
:1043200065720D0A0000000044415441454D555F3F
:104330005441534B5F454D555F4556454E540D0A0C
:10434000000000007CB504460D4600200190012DC0
:1043500009D0022D11D1002301222146084800680E
:104360000AF06CFE0AE001A8002301222146009019
:10437000034800680AF0F6FE00E000BF00BF7CBD05
:10438000240000201CB500240648032100234FF41C
:104390008062CDE9001004A107480AF01BFE044624
:1043A00020461CBD2400002044617461456D755F8A
:1043B0005461736B00000000DD42000808B5002066
:1043C00000904FF47A6000F07DF813A1002004F013
:1043D000ABF920E04FF0FF336A46194600200BF09E
:1043E00033F8009800F00100A8B111A1002004F0FA
:1043F0009BF9FEF7BFF84FF4FA6004F0E9F8FEF716
:104400001BFD20B943F2C82000F05CF803E04FF434
:10441000FA6000F057F8DDE74461746153656E643B
:10442000205461736B20456E7465720D0A000000A4
:104430004441544153454E445F5441534B5F5345AF
:104440004E445F4556454E540D0A000038B50446AB
:104450000D46012D09D0022D11D100230122214644
:10446000084800680AF0EAFD0AE00020034601223D
:1044700021460090034800680AF074FE00E000BF87
:1044800000BF38BD100000201CB5002407480321E0
:1044900000234FF48062CDE9001005A108480AF01E
:1044A00099FD044600F030F820461CBD10000020A5
:1044B0004461746153656E64205461736B00000045
:1044C000BD43000838B504464FF47A7060434FF49A
:1044D0007A71B0FBF1F5002003462A4604210090D2
:1044E000084800680BF07AF90AF004FF054600203E
:1044F00003462A4601210090024800680BF06EF93D
:1045000038BD00000C00002008B5064800231A46FC
:104510004FF47A71009004A00BF018F90549086077
:1045200008BD0000C5D000084461746153656E6425
:1045300054696D000C00002008B500200090002494
:1045400014A104F0F1F8FEF7B5F9FEF7F3FAFDF760
:10455000BDFD1DE04FF0FF336A46194600200AF00A
:1045600073FF009800F0020060B1002009F026FF00
:10457000044622460EA1002004F0D6F816A1002021
:1045800004F0D2F8009800F0010008B1FDF7FEFD3C
:10459000E0E700004461746170726F636573735F7C
:1045A0005461736B20456E7465720D0A0000000043
:1045B0004461746170726F636573735F5461736B90
:1045C0002072616D61696E20686561703A256420B2
:1045D00025250D0A000000004441544150454F4339
:1045E0004553535F5441534B5F43414C435F4556E2
:1045F000454E540D0A0000007CB504460D460020CF
:104600000190012D09D0022D11D100230122214654
:10461000084800680AF012FD0AE001A80023012200
:1046200021460090034800680AF09CFD00E000BFAE
:1046300000BF7CBD140000201CB5002406480521E5
:1046400000234FF48062CDE9001004A108480AF06D
:10465000C1FC044620461CBD140000204461746166
:1046600070726F636573735F5461736B0000000059
:1046700039450008704710B5FEF7F6FE10BD000082
:1046800004E003A20021084604F04EF8F9E7000018
:104690004572726F725F48616E646C65720D0A00DC
:1046A0001849087F012801D0032811D100BF1649FD
:1046B000096841F40061144A11601146096821F447
:1046C0000061116000BF1146096841F4007111607A
:1046D000022801D0032811D100BF0B49096841F419
:1046E0008051094A11601146096821F48051116016
:1046F00000BF1146096841F4806111600021014A40
:1047000011777047BC070020002002401249096A57
:1047100001F4800191B100F0010129B10E4949690C
:1047200041F004010C4A516100F0020169B10A49EB
:10473000496941F40041084A516106E00649496966
:1047400048F204021143044A51610349496941F4A2
:104750008031014A5161704700200240164A126AB6
:1047600002F4800232B9144A526922F40062124BF8
:104770005A610FE001F0010232B10F4A526922F48E
:1047800000620D4B5A6105E00B4A526942F4006227
:10479000094B5A61084A526960F3CA02064B5A61D2
:1047A0001A46526942F002025A611A46526942F4AC
:1047B00080325A61704700000020024010B508495D
:1047C000496941F00101064C6161026000BF00BF10
:1047D00000BFBFF36F8F00BF00BF00BF436010BDBD
:1047E00000200240F0B50246802314460D460C4ED0
:1047F000766946F480260A4F7E6100BFEFF310868B
:10480000304672B600BF2E682660241D2D1D5E1E28
:10481000F3B2002BF7D100BF80F3108800BFF0BDCA
:104820000020024070B5054600F00AFC064608E08C
:10483000681C30B100F004FC801BA84201D30320A7
:1048400070BD1C48006900F48030B0F5803FEFD0A7
:1048500018480069184900EA01041648806900F008
:1048600000400443CCB115484068204313494860D8
:1048700000BF04F0404030B10E48806904F0404170
:1048800008430C49886124F0404018B124F04040AE
:104890000849086100BF0120D2E70648006900F01E
:1048A000010020B100BF01200249086100BF0020C3
:1048B000C6E7000000200240FAC30200BC07002047
:1048C00070B50446002594F82500022803D0042082
:1048D000E063012534E02068006820F00E002168C4
:1048E00008602068006820F0010021680860A06C62
:1048F000006820F48070A16C086094F8440000F017
:104900001C0101208840216C4860D4E913104860E4
:10491000606D40B1606D006820F48070616D08606A
:10492000D4E916104860012084F8250000BF00205B
:1049300084F8240000BFA06B10B12046A16B88470B
:10494000284670BD70B50446206C0568206806686E
:1049500094F8440000F01C01042088402840E0B195
:1049600006F00400C8B12068006800F0200028B9F3
:104970002068006820F004002168086094F8440072
:1049800000F01C0104208840216C4860206B002846
:1049900056D02046216B884752E094F8440000F03E
:1049A0001C0102208840284018B306F0020000B322
:1049B0002068006800F0200040B92068006820F0FE
:1049C0000A0021680860012084F8250094F844005A
:1049D00000F01C0102208840216C486000BF0020CC
:1049E00084F8240000BFE06A50B32046E16A88479B
:1049F00026E094F8440000F01C010820884028407C
:104A0000F0B106F00800D8B12068006820F00E0070
:104A10002168086094F8440000F01C0101208840DF
:104A2000216C48600120E06384F8250000BF00206D
:104A300084F8240000BF606B10B12046616B88478A
:104A400070BD000070B504460CB9012070BD2F493F
:104A5000206888420BD22E492068401A1421B0FBEE
:104A6000F1F0800060642A48083820640AE0274991
:104A70002068401A1421B0FBF1F0800060642348E4
:104A800008382064022084F825002068056847F66D
:104A9000F0708543D4E90201084321690843616944
:104AA0000843A1690843E1690843216A08430543B3
:104AB000206805602046FFF7BBFBA068B0F5804F7B
:104AC00001D1002060602079A16C0860D4E9131046
:104AD0004860606860B16068042809D82046FFF724
:104AE000CBFB0020616D0860D4E91610486003E03C
:104AF00000206065A065E0650020E063012084F887
:104B00002500002084F8240000BF9FE7080402402D
:104B1000080002402DE9F04104460D4616461F46A6
:104B20004FF0000800BF94F82400012802D10220B1
:104B3000BDE8F081012084F8240000BF94F825002E
:104B400001283FD1022084F825000020E06320687E
:104B5000006820F00100216808603B463246294683
:104B60002046FFF79BFB206B30B12068006840F0C7
:104B70000E00216808600BE02068006820F0040047
:104B8000216808602068006840F00A002168086019
:104B9000A06C006800F4803028B1A06C006840F47C
:104BA0008070A16C0860606D28B1606D006840F491
:104BB0008070616D08602068006840F00100216825
:104BC000086006E000BF002084F8240000BF4FF01A
:104BD00002084046ACE7000070B5044600F030FA29
:104BE00006462546681C10B104480068054400BF0D
:104BF00000F026FA801BA842FAD370BDB807002047
:104C00002DE9F04104460F4600BF3F4800780128D7
:104C100002D10220BDE8F08101203B49087000BFAD
:104C20004CF25030FFF7FEFD0646002E64D13649A7
:104C300048603648006800F40070B8B13348006836
:104C400020F40070314908600846006800F4806074
:104C500040B10846006820F48060086003202A49BB
:104C6000087715E001202849087711E027480068F7
:104C700000F4806048B12548006820F48060234932
:104C8000086002202049087702E000201E490877CA
:104C9000206801280FD16068FFF738FD4CF25030D2
:104CA000FFF7C0FD06461948406948F204018843F1
:104CB000164948611EE04FF0FF303860A56813E0E8
:104CC00028466168FFF74AFD4CF25030FFF7AAFD15
:104CD00006460E48406940F2FA7188430B49486124
:104CE0000EB13D6005E06D1CD4E902010844A84204
:104CF000E6D800BFFFF7D4FC00BF002002490870CF
:104D000000BF304686E70000BC07002000200240BC
:104D10000348406940F00040014948610020704765
:104D2000002002402DE9F0470446884615461E46FD
:104D30004FF0000900BF29480078012802D1022065
:104D4000BDE8F08701202549087000BF4CF25030C3
:104D5000FFF768FD0746002F38D1204948602048FA
:104D6000006800F4806048B11D48006820F480604D
:104D70001B49086002201949087702E00020174902
:104D800008773CB92A4633464046FFF717FD4FF0F7
:104D900001090BE0012C01D0022C07D12946404625
:104DA000FFF720FD022C01D14FF480294CF2503046
:104DB000FFF738FD0746B9F1000F05D008484069F4
:104DC00020EA090006494861FFF76AFC00BF00209D
:104DD0000249087000BF3846B2E70000BC07002057
:104DE0000020024000200849496901F0004151B10A
:104DF0000649054A9160064991601146496901F0EA
:104E0000004101B1012070470020024023016745A5
:104E1000AB89EFCD7047000010B504460448006828
:104E2000204020B1024804602046FFF7F3FF10BD88
:104E30001404014078B502460023DAE001269E40C2
:104E40000D6805EA0604002C72D04D68022D02D0D0
:104E50004D68122D13D1DE0802F1200555F8260009
:104E60005D07EE0E0F25B540A8435E07F60E0D69EF
:104E7000B5402843DE0802F1200545F826001068F9
:104E80005E000325B540A8430D7905F003055E00DB
:104E9000B540284310604D68012D08D04D68022DA3
:104EA00005D04D68112D02D04D68122D13D1906898
:104EB0005E000325B540A8435E00CD68B540284399
:104EC0009060506801259D40A8430D79C5F30015F9
:104ED0009D4028435060D0685E000325B540A8433C
:104EE0005E008D68B5402843D0604D6805F0805560
:104EF000B5F1805F7CD100BF414D2D6E45F00105BD
:104F00003F4E356635462D6E05F00105009500BF14
:104F100000BF4FEAB6359E0855F826009D072E0FB4
:104F20000F25B540A843B2F1904F02D1002524E0EF
:104F30005EE0344DAA4201D101251EE0324DAA4265
:104F400001D1022519E0314DAA4201D1032514E017
:104F50002F4DAA4201D104250FE02E4DAA4201D1C6
:104F600005250AE02C4DAA4201D1062505E02B4D6E
:104F7000AA4201D1072500E008259E07360FB5405B
:104F80002843274D9E0845F82600264D2868A04353
:104F90004D6805F48035B5F5803F00D12043214DA3
:104FA00028602D1D2868A0434D6805F40035B5F52F
:104FB000003F00D120431B4D2D1D28602D1D28686A
:104FC000A0434D6805F48015B5F5801F00D120433E
:104FD000144D083528602D1D2868A0434D6805F440
:104FE0000015B5F5001F00D120430E4D0C3528608B
:104FF0005B1C0D68DD40002D7FF420AF78BD000004
:10500000001002400004004800080048000C00485E
:10501000001000480014004800180048001C004818
:10502000080001400004014042690A400AB181625F
:1050300000E0816170470AB1816100E081627047E0
:105040000148006870470000B0070020034800686E
:10505000034909680844014908607047B007002007
:10506000B807002010B50024032000F0C5F8002088
:1050700000F008F808B1012401E000F047F82046EC
:1050800010BD000070B588B004460025002600223F
:105090002146372000F06EF8372000F05BF800BFA3
:1050A0001648806D40F02000144988650846806DE0
:1050B00000F02000019000BF00BF02A903A800F08B
:1050C00079FD00F09FFD05460D48B5FBF0F0461E4A
:1050D0000C480D49086040F2E7310B48C16046605A
:1050E00000210161816001F06DFE20B9064801F0E8
:1050F000CFFE08B070BD0120FBE7000000100240A9
:1051000040420F00001400407021062008B500BF87
:105110000F48006E40F001000D4908660846006E19
:1051200000F00100009000BF00BF00BF0846806D86
:1051300040F0805088650846806D00F080500090F7
:1051400000BF00BF00220F21901E00F013F808BD21
:105150000010024001460846002809DB00F01F034A
:1051600001229A4043099B0003F1E023C3F8002188
:1051700000BF70472DE9F05F80460D4616460027B8
:1051800005F0BAFB074639462A46334601F00700C8
:10519000C0F1070ABAF1040F02D94FF0040A01E086
:1051A000C0F1070AD14600F1040ABAF1070F02D292
:1051B0004FF0000A01E0A0F1030AD4464FF0010AC3
:1051C0000AFA09FAAAF1010A0AEA020A0AFA0CFA28
:1051D0004FF0010B0BFA0CFBABF1010B0BEA030BCD
:1051E0004AEA0B042146404605F08EFB00F000B869
:1051F00030BCBDE8C09F000000BF00F00702064BB6
:1052000019684FF6FF031940044B0B4343EA022190
:10521000014B196000BF70470CED00E00000FA057B
:1052200002468ABB4148006800F4C060B0F5806F58
:105230002BD13E488030006820F480703B4BC3F88F
:1052400080001846006820F4C06040F400701860C8
:105250003748006832235843364BB0FBF3F0411C0B
:1052600000E0491E3148406900F48060B0F5806F6D
:1052700001D10029F5D12D48406900F48060B0F5D6
:10528000806F51D10320704708E0284880300068C3
:1052900020F48070254BC3F8800045E0B2F5007F14
:1052A0003AD12248006800F4C060B0F5806F2AD17E
:1052B0001E488030006840F480701C4BC3F88000AA
:1052C0001846006820F4C06040F400701860184868
:1052D000006832235843174BB0FBF3F0411C00E049
:1052E000491E1248406900F48060B0F5806F01D11A
:1052F0000029F5D10D48406900F48060B0F5806F59
:1053000012D10320BFE709488030006840F4807064
:10531000064BC3F8800007E00448006820F4C06032
:1053200040F48060014B18600020ACE70070004042
:10533000AC07002040420F000B48006800F4C0603A
:10534000B0F5806F02D14FF480607047064880301E
:10535000006800F48070B0F5807F02D14FF40070D7
:10536000F3E70020F1E70000007000400348006808
:1053700040F48070014908607047000000700040F0
:105380000848006820F00700C01C0649086006486D
:10539000006840F004000449086000BF00BF30BF4F
:1053A000704700000070004010ED00E02DE9F84368
:1053B00004460025A846208800F40060B0F5006F80
:1053C00032D1E06E402809D003DC70B120281BD117
:1053D00011E0602816D0802816D114E0FE48C0687D
:1053E00040F48030FC49C86010E00021201D02F02C
:1053F0003BFD05460AE0002104F1200002F0F8FD23
:10540000054603E000BF01E0012500BF00BF55B91C
:10541000F1489C30006820F0E000E16E0843EE495E
:10542000C1F89C0000E0A846208800F48050B0F548
:10543000805F36D1206FB0F5007F0CD004DC88B1DE
:10544000B0F5807F1DD113E0B0F5407F17D0B0F5E7
:10545000806F16D114E0E048C06840F48030DE4927
:10546000C86010E00021201D02F0FEFC05460AE0A5
:10547000002104F1200002F0BBFD054603E000BF5F
:1054800001E0012500BF00BF55B9D3489C3000683A
:1054900020F4E060216F0843CF49C1F89C0000E090
:1054A000A846206800F40030B0F5003F77D14FF0F7
:1054B0000009C948806D012121EA107078B100BF50
:1054C000C548806D40F08050C34988650846806DAE
:1054D00000F08050009000BF00BF4FF00109BF48AE
:1054E000006840F48070BD490860FFF7A9FD0746D9
:1054F00006E0FFF7A5FDC01B022801D9032505E042
:10550000B648006800F480700028F2D000BF85BB68
:10551000B1489030006800F44076D6B1D4F89800D5
:10552000B04216D0AC489030006820F44076AA48CB
:10553000D0F8900040F48030A749C1F890000846A8
:10554000D0F8900020F48030C1F890000846C0F8F0
:10555000906006F00100A8B1FFF772FD074609E070
:10556000FFF76EFDC01B41F28831884202D9032546
:1055700007E017E098489030006800F0020000282B
:10558000EED000BF65B994489030006820F44070B8
:10559000D4F8981008439049C1F8900003E00CE05B
:1055A000A84600E0A846B9F1010F05D18A48806DF0
:1055B00020F080508849886500BF207800F0010005
:1055C00048B185488830006820F00300E16B08434B
:1055D0008149C1F88800207800F00200022809D132
:1055E0007D488830006820F00C00216C08437A491F
:1055F000C1F88800207800F00400042809D176481A
:105600008830006820F03000616C08437249C1F8AE
:105610008800207800F00800082809D16E488830FA
:10562000006820F0C000A16C08436B49C1F88800F5
:10563000207800F01000102809D1674888300068F1
:1056400020F44070E16C08436349C1F88800207879
:1056500000F02000202809D15F488830006820F43D
:105660004060216D08435C49C1F88800208800F43F
:105670000070B0F5007F09D157488830006820F4E9
:105680004020616E08435449C1F88800208800F426
:105690008060B0F5806F09D14F488830006820F4F1
:1056A0004010A16E08434C49C1F88800207800F0F2
:1056B0004000402809D148488830006820F4405014
:1056C000616D08434449C1F88800207800F08000EB
:1056D000802809D140488830006820F44040A16DFE
:1056E00008433D49C1F88800208800F48070B0F577
:1056F000807F09D138488830006820F44030E16D5F
:1057000008433549C1F88800206800F48010B0F5DE
:10571000801F09D130489C30006820F00300216EC2
:1057200008432D49C1F89C00208800F40050B0F5D2
:10573000005F1FD128488830006820F04060616F0A
:105740000843254988310860606FB0F1006F06D1C9
:105750002148C06840F480101F49C8600AE0606FAB
:10576000B0F1806F06D10121201D02F07DFB0546BE
:1057700005B1A846206800F40020B0F5002F45D1FF
:1057800000BFA06FB0F5804F08D113489C3000686F
:1057900040F480401049C1F89C0011E00E489C3054
:1057A000006820F480400C49C1F89C000A48883009
:1057B000006820F04060A16F08430749C1F88800E5
:1057C00000BFA06FB0F1006F0AD10348C06840F479
:1057D00080100149C86019E00010024000700040CC
:1057E000A06FB0F5804F06D17248C06840F4803099
:1057F0007049C8600AE0A06FB0F1806F06D1012146
:10580000201D02F031FB054605B1A846206800F4D2
:105810008020B0F5802F1FD166488830006820F0C6
:105820004060E16F0843634988310860E06FB0F180
:10583000006F06D15F48C06840F480105D49C860C1
:105840000AE0E06FB0F1806F06D10121201D02F067
:105850000BFB054605B1A846208800F48040B0F552
:10586000804F16D153488830006820F04050D4F85B
:10587000801008434F4988310860D4F88000B0F1A7
:10588000805F06D10221201D02F0EEFA054605B127
:10589000A846206800F48030B0F5803F0AD1454822
:1058A0009C30006820F00400D4F88410084341497B
:1058B000C1F89C00206800F40010B0F5001F0AD168
:1058C0003C489C30006820F01800D4F88810084349
:1058D0003849C1F89C00206800F48000B0F5800FC2
:1058E0002BD13448006820F0805032490860FFF71F
:1058F000A7FB074606E0FFF7A3FBC01B022801D960
:10590000032505E02B48006800F000500028F2D184
:1059100000BF85B927489C30006820F44030D4F897
:105920008C1008432349C1F89C00022104F1200097
:1059300002F05EFB054605B1A846206800F40000B1
:10594000B0F5000F17D11B489C30006820F4805040
:10595000D4F89010084317499C310860D4F890009F
:10596000B0F5805F07D1012104F1200002F040FB77
:10597000054605B1A846206800F08070B0F1807F30
:1059800015D10C489C30006820F44010D4F89410D5
:10599000084308499C310860D4F89400B0F5001F12
:1059A00005D10448C06840F480100249C8604046F0
:1059B000BDE8F883001002402DE9F04104460D4691
:1059C000002714B90120BDE8F0817448006800F098
:1059D0000F00A8420ED27148006820F00F00284343
:1059E0006E4908600846006800F00F00A84201D028
:1059F0000120E8E7207800F00100002873D06068FB
:105A000003282BD16648006800F0007008B9012017
:105A1000D9E702F0B1FB6349884247D96048806802
:105A200000F0F00048B95E48806820F0F00040F0D7
:105A300080005B498860802738E0207800F0020011
:105A4000022833D1A06888BB5548806820F0F00058
:105A500040F0800052498860802727E06068022873
:105A600006D14F48006800F4003088B90120AAE749
:105A7000606830B94A48006800F0020040B901206F
:105A8000A1E74748006800F4806008B901209AE760
:105A900000F0DCF84349884208D94148806820F08A
:105AA000F00040F080003E49886080273C488068D4
:105AB00020F003006168084339498860FFF7C0FAA5
:105AC000064608E0FFF7BCFA801B41F288318842A5
:105AD00001D9032077E73248806800F00C00616844
